:100000000C9439000C9400000C9400000C94000037
:100010000C9400000C9400000C9400000C94000060
:100020000C9400000C9400000C9400000C94000050
:100030000C9400000C9400000C9400000C94000040
:100040000C9400000C9400000C9400000C94000030
:100050000C94000048656C6C6F20576F726C6421C3
:10006000000080C00D006001540002006D016200BC
:100070000000F894EE27ECBBF1E0FBBFEBBFE5BF5F
:100080008DE0A2E0BB27ED938A95E9F780E094E04C
:10009000A0E6ED930197E9F7E4E6F0E0859195910C
:1000A000009761F0A591B59105901590BF01F00101
:1000B00005900D920197E1F7FB01F0CFEFE5EDBF61
:1000C000E4E0EEBFC0E6D1E00C946600A0E167D0AA
:1000D00036D0E2E0EA93A0E025D0A0E6B1E04ED031
:1000E000FFCFFFCFAA93EBB3EF70AE2FE881E07F95
:1000F000EA2BEBBB8DE08A95F1F7DA9A8DE08A95D1
:10010000F1F7DA988DE08A95F1F772C0AA93A88189
:10011000E9DFE881E295E883A881E4DF85E88A9554
:10012000F1F766C0AA93E881F0E0E359FE4FE08161
:10013000A981AE0FEBDF5980488022960895A2E096
:1001400059D0ACE0E3DFA1E055D0E0E04E2E5E2ECA
:100150000895AA93A881AA3011F0571448F0E0E05E
:10016000EA934394A42DDEDFA881AA3009F440C0AD
:100170005394D89AA881CADFD8983AC0BA93AA9360
:100180001A93A981BA81ED91A983BA831E2FE03019
:1001900019F0A12FDEDFF5CF188123960895AA93D9
:1001A000EAB3E06FEABBD29AD09AD19ADA98D8989B
:1001B000D9987880E881E058E0936F01E881E054B5
:1001C000E0937001A4E1B0E00E94060118D017D0BE
:1001D00016D0A0E287DF88EC90E00197F1F7A8E263
:1001E00095DFA4E093DFA5E891DFA6E08FDFA7DF2E
:1001F000219608958BDFA3E0B0E00C940601A0E304
:1002000071DF88EC90E00197F1F70895109639F0CE
:10021000A89580ED97E00197F1F71197C9F7089538
:00000001FF
