:040000000C94380024
:100004000C9400000C9400000C9400000C9400006C
:100014000C9400000C9400000C9400000C9400005C
:100024000C9465000C9400000C9400000C940000E7
:100034000C9400000C9400000C9400000C9400003C
:100044000C9400000C9400000C9400000C9400002C
:10005400000001000905060A010002005400010025
:10006400050056000400600158000000F894EE27D3
:10007400ECBBF1E0FBBFEBBFE5BF8DE0A2E0BB272B
:10008400ED938A95E9F780E094E0A0E6ED9301977B
:10009400E9F7ECE5F0E085919591009761F0A59181
:1000A400B59105901590BF01F00105900D9201974F
:1000B400E1F7FB01F0CFEFE5EDBFE4E0EEBFC0E612
:1000C400D1E00C94A600EA93FA93EFB7EA93E0E048
:1000D400E3BF21FC18C05394E4E0E51509F455246A
:1000E40022FC03C0EFE04E0E02C0EFE04E1AEFEF29
:1000F400E41511F4689422F8442021F4E89422F8D9
:10010400E2E02E2618C0552019F4E4E05E2E01C06A
:100114005A9422FC03C0EFE04E0E02C0EFE04E1AE8
:10012400EFEFE41511F4689422F8442021F4E894E4
:1001340022F8E2E02E2625D042BEE5E0E3BFE991B5
:10014400EFBFF991E9911895EFEFE7BB1AD0E0E022
:10015400E4BBEFEFE5BB4424E1E0E9BF78949A996E
:1001640004C09A9BFECFE1E02E2620FC05C0442467
:10017400E0E0E3BFE2BF03C0E5E0E3BF42BEEFCF90
:10018400FFCFE52DF0E0E05AFE4FE081E8BB089593
:00000001FF
