:040000000C94330029
:100004000C9400000C9400000C9400000C9400006C
:100014000C9400000C9400000C9400000C946000FC
:100024000C9400000C9400000C9400000C9400004C
:100034000C9400000C9400000C9400000C9400003C
:100044000C9400000C9400000C9400000C9400002C
:100054003F065B4F666D7D077F6F0A0060015400A9
:100064000000F894EE27ECBBF1E0FBBFEBBFE5BF6B
:100074008DE0A2E0BB27ED938A95E9F780E094E058
:10008400A0E6ED930197E9F7EEE5F0E0859195910F
:10009400009761F0A591B59105901590BF01F0010D
:1000A40005900D920197E1F7FB01F0CFEFE5EDBF6D
:1000B400E4E0EEBFC0E6D1E00C948000AA93BA93CA
:1000C400EA93FA93EFB7EA93E0E0EEBDF2013196DA
:1000D4002F01EAE0F0E0E415F50511F44424552479
:1000E40020D0E8E1FCEFFDBDECBDE5E0EEBDE9911B
:1000F400EFBFF991E991B991A9911895EFEFE1BB9F
:10010400E0E0E2BBEFBDE5E0EEBDE8E1FCEFFDBD04
:10011400ECBDE5E0E9BF78944424552402D0FFCF38
:10012400FFCFA0E6B1E0A40DB51DEC91E2BB0895AC
:00000001FF
