:060000000C942F000C948B
:1000060000000C9400000C9400000C9400000C946A
:1000160000000C9400000C9400000C9400000C945A
:100026005C000C9400000C9400000C9400000C94EE
:1000360000000C9400000C9400000C9400000C943A
:1000460000000C9400000C9400000C9400000000CA
:100056000100020054000000F894EE27ECBBF1E02A
:10006600FBBFEBBFE5BF8DE0A2E0BB27ED938A9512
:10007600E9F780E094E0A0E6ED930197E9F7E6E57D
:10008600F0E085919591009761F0A591B591059065
:100096001590BF01F00105900D920197E1F7FB0164
:1000A600F0CFEFE5EDBFE4E0EEBFC0E6D1E00C94A3
:1000B6007F00EA93FA93EFB7EA93E0E0E3BFE1E06B
:1000C6002E2620FC10C021FE06C0E8B3F0E0F59510
:1000D600E795E8BB08C0E8B3EE0FE8BBE8B3E03845
:1000E60011F4689421F8E6E0E2BFE5E0E3BFE991A8
:1000F600EFBFF991E9911895EFEFE7BBE0E0E8BBB8
:10010600EABBEFEFEBBBE1E0E9BF7894E89420F8B7
:1001160021F8C8990BC0C89BFECFE6E0E2BFE5E038
:10012600E3BFE1E0E8BBE89421F820F8F2CFFFCF87
:00000001FF
