:020000000C945E
:1000020038000C9400000C9400000C9400000C9436
:1000120000000C9400000C9400000C9400000C945E
:1000220000000C9465000C9400000C9400000C94E9
:1000320000000C9400000C9400000C9400000C943E
:1000420000000C9400000C9400000C9400000C942E
:100052000000000001000905060A01000200540028
:100062000100050056000400600158000000F894E9
:10007200EE27ECBBF1E0FBBFEBBFE5BF8DE0A2E0FA
:10008200BB27ED938A95E9F780E094E0A0E6ED9333
:100092000197E9F7ECE5F0E085919591009761F021
:1000A200A591B59105901590BF01F00105900D92B3
:1000B2000197E1F7FB01F0CFEFE5EDBFE4E0EEBF22
:1000C200C0E6D1E00C947600EA93FA93EFB7EA9394
:1000D200E0E0E3BF5394E4E0E51509F4552419D0B8
:1000E200E991EFBFF991E9911895EFEFE7BB11D0D4
:1000F200E0E0E4BBEFEFE5BBE1E0E9BF7894E89430
:1001020020F89A9904C0E1EFE2BFE5E0E3BFF9CF3E
:10011200FFCFE52DF0E0E05AFE4FE081E8BB089505
:00000001FF
