:0E0000000C942F000C9400000C9400000C9443
:10000E0000000C9400000C9400000C9400000C9462
:10001E0000000C9400000C945C000C9400000C94F6
:10002E0000000C9400000C9400000C9400000C9442
:10003E0000000C9400000C9400000C9400000C9432
:10004E0000000C94000000000100020054000000AB
:10005E00F894EE27ECBBF1E0FBBFEBBFE5BF8DE004
:10006E00A2E0BB27ED938A95E9F780E094E0A0E645
:10007E00ED930197E9F7E6E5F0E08591959100970C
:10008E0061F0A591B59105901590BF01F001059015
:10009E000D920197E1F7FB01F0CFEFE5EDBFE4E044
:1000AE00EEBFC0E6D1E00C947200EA93EFB7EA938C
:1000BE00E0E0E3BFE1E02E2620FC05C0D89B02C0A5
:1000CE00D89801C0D89AE6E0E2BFE5E0E3BFE99137
:1000DE00EFBFE9911895EFEFEABBE0E0EBBBE5E08F
:1000EE00E3BFE1E0E9BF7894E89420F8FFCFFFCFBB
:00000001FF
