:0A0000000C9438000C9400000C94DE
:10000A0000000C9400000C9400000C9400000C9466
:10001A0000000C9400000C947A000C9465000C9477
:10002A0000000C9400000C9400000C9400000C9446
:10003A0000000C9400000C9400000C9400000C9436
:10004A0000000C9400000C940000FEFDFBF73F0634
:10005A005B4F666D7D077F6F0400600154000A00E4
:10006A00640158000000F894EE27ECBBF1E0FBBFF6
:10007A00EBBFE5BF8DE0A2E0BB27ED938A95E9F7D8
:10008A0080E094E0A0E6ED930197E9F7E2E6F0E07C
:10009A0085919591009761F0A591B591059015907C
:1000AA00BF01F00105900D920197E1F7FB01F0CF36
:1000BA00EFE5EDBFE4E0EEBFC0E6D1E00C94A000AE
:1000CA00EA93FA93EFB7EA93E0E0E3BF5394E4E0EC
:1000DA00E51509F455244CD0EEECE2BFE4E0E3BFA9
:1000EA00E991EFBFF991E99118950A921A929A93B8
:1000FA00AA93BA93EA93FA93EFB7EA93E0E0EEBDD4
:10010A00F30131963F01E0E1F7E2E615F70511F454
:10011A00662477243AD0E8E1FCEFFDBDECBDE5E0CA
:10012A00EEBDE991EFBFF991E991B991A991999140
:10013A00199009901895EFEFE4BBE1BBE0E0E2BB50
:10014A00EFEFE5BBE4E0E3BFE0E0EFBDE5E0EEBDE5
:10015A00E8E1FCEFFDBDECBDE5E0E9BFEEECE2BF96
:10016A00789455246624772410D002D0FFCFFFCF8D
:10017A00E52DF0E0E05AFE4FE081E5BBE52DF0E029
:10018A00E259FE4FE081E2BB0895D301EAE0F0E0D4
:10019A000E941901EC59FE4FE081E0937101D301ED
:1001AA00EAE0F0E00E941401DF01EAE0F0E00E94D8
:1001BA001901EC59FE4FE081E0937001D301E4E6A6
:1001CA00F0E00E941401DF01EAE0F0E00E94190168
:1001DA00EC59FE4FE081E0936F01D301E8EEF3E0C2
:1001EA000E941401EC59FE4FE081E0936E010895DC
:1001FA00F195E195F04008950024112490E1AA0FA9
:10020A00BB1F001C111C0E1A1F0A18F40E0E1F1E0B
:10021A0001C0A1609A9599F7FD01D001089512D005
:10022A00EBDF0EF4E5DF0895E894B7FF04C0A0956C
:10023A00B09511966894F7FDDBDFDEDFFD010EF461
:10024A00D7DF0895E894F7FF02C0D2DF6894B7FFBA
:10025A0006C0A095B095119600F8039400FA089587
:00000001FF
