:100000000C9455000C9482000C9492000C94A70060
:100010000C9400000C94B7000C9400000C940000A9
:100020000C9400000C9400000C9400000C94000050
:100030000C9400000C9400000C9400000C94000040
:100040000C9400000C9400000C9400000C94000030
:100050000C9400001027E80364000A00010000105F
:10006000000110000100000025643A25643A25646F
:1000700000416C61726D456E61626C65640054682C
:10008000652074696D65722069732075700080C089
:100090000100020066000D006002710010006D0298
:1000A0007E000200A7028E000000F894EE27ECBB51
:1000B000F1E0FBBFEBBFE5BF8DE0A2E0BB27ED9316
:1000C0008A95E9F780E098E0A0E6ED930197E9F7DB
:1000D000E0E9F0E085919591009761F0A591B591E7
:1000E00005901590BF01F00105900D920197E1F781
:1000F000FB01F0CFEFE5EDBFE8E0EEBFC0E6D2E0F8
:100100000C94EE000E940704EBE3F0E0AE16BF068D
:1001100024F4F50131965F0102C0AA24BB240E9499
:1001200015044CC00E940704A0917D02B0917E028C
:1001300057972CF4ADE7B2E00E943B0405C0E0E025
:10014000E0937D02E0937E020E94150437C00E9476
:100150000704ECE3F0E0CE16DF0624F4F601319656
:100160006F0102C0CC24DD240E94150427C00E9428
:100170000704F20131962F01ECE3F0E0E415F505F8
:10018000B1F444245524F40131964F01ECE3F0E03E
:10019000E815F90561F488249924F30131963F01AB
:1001A000E8E1F0E0E615F70511F466247724E0E0D5
:1001B000EA93A0E00E946F030E9441040E94AE03F4
:1001C000E991EFBFF991E991B991A991999189913B
:1001D00079916991F9901990099018957894EBB7F5
:1001E000E06EEBBFE5B7EF60E5BFE4B7E064E4BF06
:1001F000E8E0E2BDE5E0E5BDE0E4E9BFE0E0E4BD64
:1002000044245524E2E3F0E04F01EAE0F0E03F014E
:10021000A0E10E94BF030E948003A098A198A89823
:10022000A998889A9098CC24DD24AA24BB24E0E0E5
:10023000E0937D02E0937E02989B65C09899FECF83
:10024000689420F8E0E0EA93A1E00E946F03A0E642
:10025000B2E00E94AE0340928102509282028092EC
:100260007F029092800260928302709284020E94C8
:100270005F04EC0DFD1DE0938102F0938202A091DA
:100280008102B0918202DC975CF00E945F04FC97CF
:10029000E0938102F0938202AFE7B2E00E943B0458
:1002A000F501A0917F02B0918002EA0FFB1FE0935D
:1002B0007F02F0938002A0917F02B0918002DC97D0
:1002C0004CF0FC97E0937F02F0938002A3E8B2E049
:1002D0000E943B04E0917D02F0917E02A091830296
:1002E000B0918402EA0FFB1FE0938302F093840233
:1002F000A0918302B091840258972CF07897E093F4
:100300008302F0938402E0918302F0918402E61567
:10031000F70571F4E0917F02F0918002E815F9058C
:1003200039F40E945F04E415F50511F420FC01C0C6
:1003300012C0E89420F8909A0E9480030E94410421
:100340000E94AE03E0E0EA93A1E00E946F03ADE6F5
:10035000B2E00E94AE0370CFFFCFBA93AA931A9374
:100360000A93AA81BB8112960E94B504309729F1A5
:10037000AA81BB8114960E94B5048F01309761F069
:100380000230E0E01E0780F0F80131978F01AA816A
:10039000BB811496ED93FC93AA81BB8112960E94B7
:1003A0003B043197AC81A083AA81BB810E94B50434
:1003B000FF2312F00E943B0406C0AA81BB81EFEF2D
:1003C000FFEFED93FC931981088125960895BA9368
:1003D000AA9326970E94C20410E0AC85BD85E0E098
:1003E000F0E0ED93FC93EA89FB893196EA8BFB8B75
:1003F0003197E4912E2FE03009F415C1E12FE03060
:1004000039F4253211F411E002C00E9464040AC1DB
:10041000E130A9F4253219F40E94640402C112E00B
:1004200040E000E02D3211F401E0FCC02B3211F469
:100430004BE2F8C0203211F440E2F4C002C0E230D6
:1004400039F450E013E0203311F40068EBC003C02E
:10045000E33009F0E7C0203310F02A3308F007C07A
:10046000AAE05A9F502DE22FE0535E0FDBC0E22F2F
:10047000E33649F40E946B04E889F989A481AA93C0
:100480000E947104CEC0E33741F40E946B040E94C5
:1004900077040E94EE031E2F0AC0E03761F40E9429
:1004A0006B040E9477040E94FA031E2F086002600A
:1004B0000F7730E034C0E43611F0E93611F404600F
:1004C00002C0E53731F4E4E5F0E0EE83FF8315E0A8
:1004D0000CC0E83511F4086003C0E83709F0A1C08A
:1004E000EEE5F0E0EE83FF8314E002FF14C00E940B
:1004F0006B040E948104AB85AA233AF4EA85FB854C
:100500000E94AC04EA87FB874DE2403011F01F5F88
:1005100001C00B7F04C00E946B040E94810400FD97
:1005200011C0151778F407FF08C002FF04C00B7F45
:10053000242F115001C020E301C020E20E94640476
:100540005150EFCF312F01FF17C03030A1F003FF22
:1005500006C0EE81FF812591EE83FF8305C0AE8149
:10056000BF812D91AE83BF830E946404503009F097
:1005700051503150EACF4BC020E3EE81FF810E9401
:10058000B904E887F987EE81FF813296EE83FF8315
:10059000E885F985AA85BB85AE17BF0750F02F5FA8
:1005A000A885B985EA85FB85EA1BFB0BEA87FB87F3
:1005B000EFCF2A3328F003FF02C0295F01C0295D75
:1005C00004FD1AC0213320F4A885B985119709F4D8
:1005D00009C0531710F000FF01C013C020E207FF4D
:1005E0000BC020E3006102FF07C00B7F4A930E940B
:1005F0007104503009F051500E946404503009F0E9
:1006000051503150A885B985129708F0B5CF00FF39
:1006100008C0503031F05150E0E2EA930E9471047A
:10062000F8CF10E0E0CEAC85BD850E94B5040E94F5
:10063000C90464960895FF92F82E26970E94C40478
:100640000E948904309719F4EFEFFFEF23C0DE0119
:1006500016960E94A8048D010E948904EE83FF83F0
:10066000E0E0E887E987DE011A960E94A8040E946C
:10067000B504FA93EA931A930A93EDEAF1E0FA9338
:10068000EA93DE011A96A3DE9F01AE81BF81E0E00E
:10069000EC93F9010E94CB042A96FF900895AA9347
:1006A000EBB3EF70AE2FE881E07FEA2BEBBB8DE080
:1006B0008A95F1F7DA9A8DE08A95F1F7DA988DE06C
:1006C0008A95F1F789C0AA93A881E9DFE881E295CC
:1006D000E883A881E4DF85E88A95F1F77DC0AA93D5
:1006E000E881F0E0E955FD4FE081A981AE0FEBDF35
:1006F000E981E093AB02E881E093AC022296089591
:10070000A2E00E949004ACE0DEDFA1E00E94900431
:10071000E0E0E093AC02E093AB020895AA93A881D5
:10072000AA3031F0E091AD02A091AB02AE1760F0BB
:10073000E0E0EA93A091AC02AF5FA093AC02CFDF00
:10074000A881AA3009F448C0E091AB02EF5FE093C2
:10075000AB02D89AA881B7DFD8983EC0BA93AA93C3
:100760001A93A981BA81ED91A983BA831E2FE03033
:1007700019F0A12FD3DFF5CF188123960895AA93FE
:10078000EAB3E06FEABBD29AD09AD19ADA98D898B5
:10079000D998E881E093AD02E058E093A902E8819E
:1007A000E054E093AA02A4E1B0E00E949E040E94FB
:1007B00096040E9496040E949604A0E270DF88ECE2
:1007C00090E00197F1F7A8E27EDFA4E07CDFA5E8E6
:1007D0007ADFA6E078DF94DF21960895BA93AA9392
:1007E000A991B991EE27FF276D91662311F03196FB
:1007F000FBCF0895BA93AA93AA27BB27E991F99151
:100800000590002011F01196FBCFFD0108950A928A
:100810001A92FA926A937A938A939A93AA93BA93C2
:10082000EA93FA93EFB7EA930895E0E0EA93A1E040
:100830000E946F03E6E9F2E0FA93EA93E8E6F0E05B
:10084000FA93EA93E0917D02F0917E020E94B00457
:100850000E94BD04F5010E94B0040E94BD04F6018F
:100860000E94B0040E94BD048CE00E941B036096AD
:10087000A6E9B2E00895ED91FD913196FE93EE93D5
:100880000895E5E8F2E0FA93EA93E8E6F0E0FA93F7
:10089000EA93F3010E94B0040E94BD04F4010E9497
:1008A000B0040E94BD04F2010E94B0040E94BD0485
:1008B0008CE00E941B036096A5E8B2E00895E091E9
:1008C0008102F091820208952A93AD85BE85EF855D
:1008D000F88909950895E889F9893497E88BF98BA7
:1008E0000895AD85BE85EF85F88909950895A88995
:1008F000B98914960E94B504EE83FF83AE81BF814F
:100900000895A889B98914960E94B504EA87FB87DF
:100910000895DE011C960E94A8040E94B504089563
:100920000E946303A3E0B0E00C949E04A0E30E9445
:100930004F0388EC90E00197F1F70895109639F095
:10094000A89580ED97E00197F1F71197C9F7089501
:100950000024AF0DB01D0895F195E195F040089584
:100960006F2F660F660B762F0895ED91FC9111970E
:1009700008950590F491E02D08957A936A93FA937F
:10098000EA9308955A934A933A932A931A930A93AF
:1009900008955D814C813B812A81198108810895E8
:00000001FF
