:040000000C9450000C
:100004000C9400000C9400000C9492000C940000DA
:100014000C9400000C9400000C9400000C9400005C
:100024000C948A000C9400000C9400000C940000C2
:100034000C9400000C9400000C9400000C9400003C
:100044000C9400000C9400000C9400000C9400002C
:100054001027E80364000A000100001000011000EA
:100064000100000054656D703D2564202043004C60
:100074006F772054656D70203D20256400486967C2
:10008400682054656D70203D2025640080C0020006
:10009400040066000200800290000000F894EE273D
:1000A400ECBBF1E0FBBFEBBFE5BF8DE0A2E0BB27FB
:1000B400ED938A95E9F780E098E0A0E6ED93019747
:1000C400E9F7E2E9F0E085919591009761F0A59157
:1000D400B59105901590BF01F00105900D9201971F
:1000E400E1F7FB01F0CFEFE5EDBFE8E0EEBFC0E6DE
:1000F400D2E00C94B600AA93E881E06EE7B98BE1F4
:100104008A95F1F7369A349BFECF349AE5B1F5C05F
:100114000E944203E0E0EEBD92D00E94500316C05C
:100124000E944203B09903C063940E946203B19990
:1001340003C06A940E946203B39903C073940E943B
:100144008403B49903C07A940E948403E991EFBFB5
:10015400F991E991B991A9919991899179916991CB
:10016400F990199009901895E0E0E7BBEFEFE8BB30
:10017400A09AA998E0E8E8B9E0EEE7B9E3E8E6B9BF
:10018400E0E0E0BFA0E18DD07894E0E2EBBFE0E0F6
:10019400E4BFE3E27E2EEEE16E2EE0E0EFBDE5E0AB
:1001A400E9BFA0E0A8DF4E2E55240E945003E0E0F2
:1001B400EA93A0E037D0A0E6B2E062D0A6E9B0E0CE
:1001C4000E94E003E72DD201F0E0EA17FB070CF4EC
:1001D400A89AE62DD201F0E0AE17BF070CF4A89858
:1001E400E0CFFFCFAA93E2B3EF70AE2FE881E07FB8
:1001F400EA2BE2BB8DE08A95F1F7929A8DE08A951D
:10020400F1F792988DE08A95F1F777C0AA93A881C7
:10021400E9DFE881E295E883A881E4DF85E88A954F
:10022400F1F76BC0AA93E881F0E0E058FD4FE0815C
:10023400A981AE0FEBDF9980888022960895A2E011
:100244000E94A603ACE0E2DFA1E00E94A603E0E086
:100254008E2E9E2E0895AA93A881AA3011F09B1485
:1002640048F0E0E0EA938394A82DDCDFA881AA306B
:1002740009F443C09394909AA881C8DF90983DC034
:10028400BA93AA931A93A981BA81ED91A983BA83E7
:100294001E2FE03019F0A12FDEDFF5CF1881239651
:1002A4000895AA93E1B3E06FE1BB8A9A889A899A88
:1002B400929890989198B880E881E058E0938202EF
:1002C400E881E054E0938302A4E1B0E00E94E003FB
:1002D4000E94AC030E94AC030E94AC03A0E282DF44
:1002E40088EC90E00197F1F7A8E290DFA4E08EDFBC
:1002F400A5E88CDFA6E08ADFA2DF21960895BA93F1
:10030400AA931A930A93AA81BB8112960E94F703B7
:10031400309759F1AA81BB8114960E94F7038F018B
:10032400309761F00230E0E01E0798F0F801319751
:100334008F01AA81BB811496ED93FC93AA81BB81A2
:100344001296ED91FD913196FE93EE933197AC8127
:10035400A083AA81BB810E94F703FF232AF0ED91B9
:10036400FD913196FE93EE9306C0AA81BB81EFEF17
:10037400FFEFED93FC931981088125960895BA93B4
:10038400AA9326970E94040410E0AC85BD85E0E0A2
:10039400F0E0ED93FC93EA89FB893196EA8BFB8BC1
:1003A4003197E4912E2FE03009F415C1E12FE030AC
:1003B40039F4253211F411E002C00E94B4030AC1D9
:1003C400E130A9F4253219F40E94B40302C112E009
:1003D40040E000E02D3211F401E0FCC02B3211F4B6
:1003E4004BE2F8C0203211F440E2F4C002C0E23023
:1003F40039F450E013E0203311F40068EBC003C07B
:10040400E33009F0E7C0203310F02A3308F007C0C6
:10041400AAE05A9F502DE22FE0535E0FDBC0E22F7B
:10042400E33649F40E94BB03E889F989A481AA93BD
:100434000E94C103CEC0E33741F40E94BB030E9473
:10044400C7030E9429031E2F0AC0E03761F40E94EB
:10045400BB030E94C7030E9435031E2F086002607D
:100464000F7730E034C0E43611F0E93611F404605B
:1004740002C0E53731F4E4E5F0E0EE83FF8315E0F4
:100484000CC0E83511F4086003C0E83709F0A1C0D6
:10049400EEE5F0E0EE83FF8314E002FF14C00E9457
:1004A400BB030E94D103AB85AA233AF4EA85FB85FA
:1004B4000E94EE03EA87FB874DE2403011F01F5F94
:1004C40001C00B7F04C00E94BB030E94D10300FD46
:1004D40011C0151778F407FF08C002FF04C00B7F92
:1004E400242F115001C020E301C020E20E94B40374
:1004F4005150EFCF312F01FF17C03030A1F003FF6F
:1005040006C0EE81FF812591EE83FF8305C0AE8195
:10051400BF812D91AE83BF830E94B403503009F094
:1005240051503150EACF4BC020E3EE81FF810E944D
:10053400FB03E887F987EE81FF813296EE83FF8320
:10054400E885F985AA85BB85AE17BF0750F02F5FF4
:10055400A885B985EA85FB85EA1BFB0BEA87FB873F
:10056400EFCF2A3328F003FF02C0295F01C0295DC1
:1005740004FD1AC0213320F4A885B985119709F424
:1005840009C0531710F000FF01C013C020E207FF99
:100594000BC020E3006102FF07C00B7F4A930E9457
:1005A400C103503009F051500E94B403503009F097
:1005B40051503150A885B985129708F0B5CF00FF86
:1005C40008C0503031F05150E0E2EA930E94C10378
:1005D400F8CF10E0E0CEAC85BD850E94F7030E9401
:1005E4000B0464960895FF92F82E26970E94060441
:1005F4000E94D903309719F4EFEFFFEF23C0DE0117
:1006040016960E94EA038D010E94D903EE83FF83AC
:10061400E0E0E887E987DE011A960E94EA030E9477
:10062400F703FA93EA931A930A93E1E8F1E0FA9351
:10063400EA93DE011A96A3DE9F01AE81BF81E0E05A
:10064400EC93F9010E940D042A96FF900895BA9341
:10065400AA93A991B991EE27FF276D91662311F012
:100664003196FBCF0895BA93AA93AA27BB27E991A1
:10067400F9910590002011F01196FBCFFD0108952A
:100684000A921A92FA926A937A938A939A93AA9301
:10069400BA93EA93FA93EFB7EA930895E0E6F2E0A7
:1006A400FA93EA93E8E6F0E0FA93EA93F2010E94FF
:1006B400F2030E94FF0384E00E94F5022896089545
:1006C400E0E7F2E0FA93EA93E3E7F0E0FA93EA93DF
:1006D400E62DFF27662777270E94FF0384E00E9408
:1006E400F5022896E0E0EA93A1E00E941401A0E755
:1006F400B2E00E944201E5E0EEBDE0E8F1ECFDBDB0
:10070400ECBD0895E0E7F2E0FA93EA93E1E8F0E063
:10071400FA93EA93E72DFF27662777270E94FF03C2
:1007240084E00E94F5022896E0E0EA93A1E00E94AA
:100734001401A0E7B2E00E944201E5E0EEBDE0E86A
:10074400F1ECFDBDECBD08950E940801A3E0B0E00A
:100754000C94E003A0E30E94F40088EC90E001977D
:10076400F1F708952A93AD85BE85EF85F88909953B
:100774000895E889F9893497E88BF98B0895AD8554
:10078400BE85EF85F88909950895A889B9891496D5
:100794000E94F703EE83FF83AE81BF810895A88989
:1007A400B98914960E94F703EA87FB870895DE014E
:1007B4001C960E94EA030E94F7030895109639F0EC
:1007C400A89580ED97E00197F1F71197C9F708957F
:1007D4000024AF0DB01D0895F195E195F040089502
:1007E4006F2F660F660B762F0895ED91FC9111978C
:1007F40008950590F491E02D08957A936A93FA93FD
:10080400EA9308955A934A933A932A931A930A932C
:1008140008955D814C813B812A8119810881089565
:00000001FF
