:060000000C9442000C9478
:1000060000000C9400000C9400000C9400000C946A
:1000160000000C9400000C9400000C9400000C945A
:1000260000000C9400000C9400000C9400000C944A
:1000360000000C9400000C9400000C9400000C943A
:1000460000000C9400000C9400000C940000102793
:10005600E80364000A00010000100001100001001E
:10006600000054656D703D2564202043000080C06B
:100076000200040066000200700274000000F8949A
:10008600EE27ECBBF1E0FBBFEBBFE5BF8DE0A2E0E6
:10009600BB27ED938A95E9F780E098E0A0E6ED931B
:1000A6000197E9F7E6E7F0E085919591009761F011
:1000B600A591B59105901590BF01F00105900D929F
:1000C6000197E1F7FB01F0CFEFE5EDBFE8E0EEBF0A
:1000D600C0E6D2E00C947C00AA93E881E06EE7B912
:1000E6008BE18A95F1F7369A349BFECF349AE5B1C7
:1000F600B8C0E0E8E8B9E0EEE7B9E3E8E6B9E0E081
:10010600E0BFA0E182D0A0E0E7DF4E2E5524E0E676
:10011600F2E0FA93EA93E8E6F0E0FA93EA93F20162
:100126000E9443030E94500384E00E94AA0228967C
:100136003AD0E0E0EA93A0E029D0A0E6B2E054D0BD
:10014600A6E9B0E00E943103DECFFFCFAA93E2B367
:10015600EF70AE2FE881E07FEA2BE2BB8DE08A9557
:10016600F1F7929A8DE08A95F1F792988DE08A954B
:10017600F1F777C0AA93A881E9DFE881E295E883E1
:10018600A881E4DF85E88A95F1F76BC0AA93E88138
:10019600F0E0E059FD4FE081A981AE0FEBDF7980F9
:1001A600688022960895A2E00E94F702ACE0E2DFA2
:1001B600A1E00E94F702E0E06E2E7E2E0895AA933B
:1001C600A881AA3011F0791448F0E0E0EA9363942C
:1001D600A62DDCDFA881AA3009F443C07394909A57
:1001E600A881C8DF90983DC0BA93AA931A93A981B3
:1001F600BA81ED91A983BA831E2FE03019F0A12FA1
:10020600DEDFF5CF188123960895AA93E1B3E06F58
:10021600E1BB8A9A889A899A929890989198988040
:10022600E881E058E0937202E881E054E0937302BB
:10023600A4E1B0E00E9431030E94FD020E94FD028B
:100246000E94FD02A0E282DF88EC90E00197F1F7C0
:10025600A8E290DFA4E08EDFA5E88CDFA6E08ADFC7
:10026600A2DF21960895BA93AA931A930A93AA81B4
:10027600BB8112960E944803309759F1AA81BB812F
:1002860014960E9448038F01309761F00230E0E037
:100296001E0798F0F80131978F01AA81BB81149649
:1002A600ED93FC93AA81BB811296ED91FD91319657
:1002B600FE93EE933197AC81A083AA81BB810E9405
:1002C6004803FF232AF0ED91FD913196FE93EE93BC
:1002D60006C0AA81BB81EFEFFFEFED93FC93198176
:1002E600088125960895BA93AA9326970E945503E6
:1002F60010E0AC85BD85E0E0F0E0ED93FC93EA8983
:10030600FB893196EA8BFB8B3197E4912E2FE030F7
:1003160009F415C1E12FE03039F4253211F411E06A
:1003260002C00E9405030AC1E130A9F4253219F47E
:100336000E94050302C112E040E000E02D3211F4F4
:1003460001E0FCC02B3211F44BE2F8C0203211F46C
:1003560040E2F4C002C0E23039F450E013E020334A
:1003660011F40068EBC003C0E33009F0E7C02033A6
:1003760010F02A3308F007C0AAE05A9F502DE22F4A
:10038600E0535E0FDBC0E22FE33649F40E940C0314
:10039600E889F989A481AA930E941203CEC0E337A3
:1003A60041F40E940C030E9418030E94DE021E2FD5
:1003B6000AC0E03761F40E940C030E9418030E94F1
:1003C600EA021E2F086002600F7730E034C0E43680
:1003D60011F0E93611F4046002C0E53731F4E4E5C2
:1003E600F0E0EE83FF8315E00CC0E83511F40860F9
:1003F60003C0E83709F0A1C0EEE5F0E0EE83FF8325
:1004060014E002FF14C00E940C030E942203AB8575
:10041600AA233AF4EA85FB850E943F03EA87FB8715
:100426004DE2403011F01F5F01C00B7F04C00E94F7
:100436000C030E94220300FD11C0151778F407FF74
:1004460008C002FF04C00B7F242F115001C020E317
:1004560001C020E20E9405035150EFCF312F01FF6A
:1004660017C03030A1F003FF06C0EE81FF81259151
:10047600EE83FF8305C0AE81BF812D91AE83BF831E
:100486000E940503503009F051503150EACF4BC05D
:1004960020E3EE81FF810E944C03E887F987EE8115
:1004A600FF813296EE83FF83E885F985AA85BB85B1
:1004B600AE17BF0750F02F5FA885B985EA85FB8583
:1004C600EA1BFB0BEA87FB87EFCF2A3328F003FFF3
:1004D60002C0295F01C0295D04FD1AC0213320F442
:1004E600A885B985119709F409C0531710F000FFC4
:1004F60001C013C020E207FF0BC020E3006102FF2A
:1005060007C00B7F4A930E941203503009F05150E6
:100516000E940503503009F051503150A885B98525
:10052600129708F0B5CF00FF08C0503031F0515097
:10053600E0E2EA930E941203F8CF10E0E0CEAC8529
:10054600BD850E9448030E945C0364960895FF924D
:10055600F82E26970E9457030E942A03309719F413
:10056600EFEFFFEF23C0DE0116960E943B038D01DD
:100576000E942A03EE83FF83E0E0E887E987DE0135
:100586001A960E943B030E944803FA93EA931A9331
:100596000A93E6E3F1E0FA93EA93DE011A96A3DE04
:1005A6009F01AE81BF81E0E0EC93F9010E945E03FA
:1005B6002A96FF900895BA93AA93A991B991EE2726
:1005C600FF276D91662311F03196FBCF0895BA93FC
:1005D600AA93AA27BB27E991F9910590002011F06B
:1005E6001196FBCFFD0108950E94BD00A3E0B0E087
:1005F6000C943103A0E30E94A90088EC90E00197D7
:10060600F1F708952A93AD85BE85EF85F88909959A
:100616000895E889F9893497E88BF98B0895AD85B3
:10062600BE85EF85F88909950895A889B989149634
:100636000E944803EE83FF83AE81BF810895A88997
:10064600B98914960E944803EA87FB870895DE015C
:100656001C960E943B030E9448030895109639F0A9
:10066600A89580ED97E00197F1F71197C9F70895DE
:100676000024AF0DB01D0895F195E195F040089561
:100686006F2F660F660B762F0895ED91FC911197EB
:1006960008950590F491E02D08957A936A93FA935C
:1006A600EA9308955A934A933A932A931A930A938C
:1006B60008955D814C813B812A81198108810895C5
:00000001FF
