:040000000C94460016
:100004000C9473000C9481000C948F000C940000E9
:100014000C94A1000C9400000C9400000C940000BB
:100024000C9400000C9400000C9400000C9400004C
:100034000C9400000C9400000C9400000C9400003C
:100044000C9400000C9400000C9400000C9400002C
:100054001027E80364000A000100001000011000EA
:100064000100780525643A25643A25640025642F47
:1000740025642F256420000080C002006002660011
:10008400020084027C000000F894EE27ECBBF1E04F
:10009400FBBFEBBFE5BF8DE0A2E0BB27ED938A95E4
:1000A400E9F780E098E0A0E6ED930197E9F7EEE741
:1000B400F0E085919591009761F0A591B591059037
:1000C4001590BF01F00105900D920197E1F7FB0136
:1000D400F0CFEFE5EDBFE8E0EEBFC0E6D2E00C9470
:1000E4002C010E94CC03EBE3F0E08E169F0624F46F
:1000F400F40131964F0102C0882499241BC00E9448
:10010400CC03E7E1F0E06E167F0624F4F3013196A8
:100114003F0102C0882499240DC00E94CC03EEE163
:10012400F0E06E167F0624F4F50131965F0102C0FB
:1001340088249924E991EFBFF991E99118950A92DD
:100144001A92FA926A937A938A939A93AA93BA9395
:10015400EA93FA93EFB7EA93F20131962F01ECE3B5
:10016400F0E0E415F50561F544245524F4013196D5
:100174004F01ECE3F0E0E815F90511F58824992422
:10018400F30131963F01E8E1F0E0E615F705C1F42B
:1001940066247724F50131965F01EEE1F0E0EA157B
:1001A400FB0571F4AA24BB24F60131966F01EEE13C
:1001B400F0E0EC15FD0521F4CC24DD240E94D103EC
:1001C4000E944503E2E6F2E0FA93EA93E8E6F0E0FF
:1001D400FA93EA93F3010E94D903F4010E94D9032C
:1001E400F2010E94D9038CE00E94E0026096A2E62C
:1001F400B2E00E947303E3E7F2E0FA93EA93E1E7E3
:10020400F0E0FA93EA93E0916002F09161020E94B7
:10021400D903F6010E94D903F5010E94D9038CE0A9
:100224000E94E0026096E0E0EA93A1E00E943403B9
:10023400A3E7B2E00E947303E991EFBFF991E9915A
:10024400B991A9919991899179916991F9901990AC
:10025400099018957894EBB7E06EEBBFE5B7EF60C3
:10026400E5BFE4B7E064E4BFE8E0E2BDE5E0E5BD96
:10027400E0E4E9BFE0E0E4BD44245524E2E1F0E039
:100284004F01EAE0F0E03F01E1E0F0E05F01E8E087
:10029400F0E06F01A0E10E9484030E944503A0984E
:1002A400A198A898A998989B0DC09899FECFEEE1C3
:1002B400F0E0CE16DF0624F4F60131966F0102C099
:1002C400CC24DD24999B04C09999FECF0E94D103CC
:1002D400EACFFFCFBA93AA931A930A93AA81BB8158
:1002E40012960E942F04309759F1AA81BB8114966B
:1002F4000E942F048F01309761F00230E0E01E0766
:1003040098F0F80131978F01AA81BB811496ED937F
:10031400FC93AA81BB811296ED91FD913196FE93D7
:10032400EE933197AC81A083AA81BB810E942F04F4
:10033400FF232AF0ED91FD913196FE93EE9306C0D2
:10034400AA81BB81EFEFFFEFED93FC931981088144
:1003540025960895BA93AA9326970E943C0410E028
:10036400AC85BD85E0E0F0E0ED93FC93EA89FB8980
:100374003196EA8BFB8B3197E4912E2FE03009F410
:1003840015C1E12FE03039F4253211F411E002C037
:100394000E94DE030AC1E130A9F4253219F40E9457
:1003A400DE0302C112E040E000E02D3211F401E06E
:1003B400FCC02B3211F44BE2F8C0203211F440E2BD
:1003C400F4C002C0E23039F450E013E0203311F4F9
:1003D4000068EBC003C0E33009F0E7C0203310F03D
:1003E4002A3308F007C0AAE05A9F502DE22FE053A9
:1003F4005E0FDBC0E22FE33649F40E94E503E8898F
:10040400F989A481AA930E94EB03CEC0E33741F497
:100414000E94E5030E94F1030E94B3031E2F0AC049
:10042400E03761F40E94E5030E94F1030E94BF03D8
:100434001E2F086002600F7730E034C0E43611F0FC
:10044400E93611F4046002C0E53731F4E4E5F0E084
:10045400EE83FF8315E00CC0E83511F4086003C097
:10046400E83709F0A1C0EEE5F0E0EE83FF8314E085
:1004740002FF14C00E94E5030E94FB03AB85AA237C
:100484003AF4EA85FB850E942604EA87FB874DE25D
:10049400403011F01F5F01C00B7F04C00E94E503D0
:1004A4000E94FB0300FD11C0151778F407FF08C074
:1004B40002FF04C00B7F242F115001C020E301C0B0
:1004C40020E20E94DE035150EFCF312F01FF17C00D
:1004D4003030A1F003FF06C0EE81FF812591EE8349
:1004E400FF8305C0AE81BF812D91AE83BF830E947F
:1004F400DE03503009F051503150EACF4BC020E3B5
:10050400EE81FF810E943304E887F987EE81FF8141
:100514003296EE83FF83E885F985AA85BB85AE17FD
:10052400BF0750F02F5FA885B985EA85FB85EA1BD4
:10053400FB0BEA87FB87EFCF2A3328F003FF02C0C7
:10054400295F01C0295D04FD1AC0213320F4A88568
:10055400B985119709F409C0531710F000FF01C0C1
:1005640013C020E207FF0BC020E3006102FF07C0B5
:100574000B7F4A930E94EB03503009F051500E94C4
:10058400DE03503009F051503150A885B9851297D7
:1005940008F0B5CF00FF08C0503031F05150E0E210
:1005A400EA930E94EB03F8CF10E0E0CEAC85BD8562
:1005B4000E942F040E94430464960895FF92F82E2B
:1005C40026970E943E040E940304309719F4EFEF2B
:1005D400FFEF23C0DE0116960E9422048D010E94C3
:1005E4000304EE83FF83E0E0E887E987DE011A96DF
:1005F4000E9422040E942F04FA93EA931A930A9306
:10060400ECE6F1E0FA93EA93DE011A96A3DE9F0189
:10061400AE81BF81E0E0EC93F9010E9445042A9683
:10062400FF900895AA93EBB3EF70AE2FE881E07FBB
:10063400EA2BEBBB8DE08A95F1F7DA9A8DE08A9587
:10064400F1F7DA988DE08A95F1F789C0AA93A88129
:10065400E9DFE881E295E883A881E4DF85E88A950B
:10066400F1F77DC0AA93E881F0E0EC57FD4FE081FB
:10067400A981AE0FEBDFE981E0938802E881E09382
:10068400890222960895A2E00E940A04ACE0DEDF0B
:10069400A1E00E940A04E0E0E0938902E09388026A
:1006A4000895AA93A881AA3031F0E0918A02A0911A
:1006B4008802AE1760F0E0E0EA93A0918902AF5F90
:1006C400A0938902CFDFA881AA3009F448C0E09141
:1006D4008802EF5FE0938802D89AA881B7DFD898A0
:1006E4003EC0BA93AA931A93A981BA81ED91A983C2
:1006F400BA831E2FE03019F0A12FD3DFF5CF188174
:1007040023960895AA93EAB3E06FEABBD29AD09AEB
:10071400D19ADA98D898D998E881E0938A02E05877
:10072400E0938602E881E054E0938702A4E1B0E01C
:100734000E9418040E9410040E9410040E941004D5
:10074400A0E270DF88EC90E00197F1F7A8E27EDF89
:10075400A4E07CDFA5E87ADFA6E078DF94DF2196C9
:100764000895BA93AA93A991B991EE27FF276D91A1
:10077400662311F03196FBCF0895BA93AA93AA2762
:10078400BB27E991F9910590002011F01196FBCF58
:10079400FD010895EA93FA93EFB7EA930895A0E66A
:1007A400B2E0ED91FD913196FE93EE9308950E948F
:1007B4002A040E94370408952A93AD85BE85EF85E7
:1007C400F88909950895E889F9893497E88BF98BB4
:1007D4000895AD85BE85EF85F88909950895A889A2
:1007E400B98914960E942F04EE83FF83AE81BF81E2
:1007F4000895A889B98914960E942F04EA87FB8773
:100804000895DE011C960E9422040E942F0408957C
:100814000E942803A3E0B0E00C941804A0E30E9413
:10082400140388EC90E00197F1F70895109639F0DD
:10083400A89580ED97E00197F1F71197C9F708950E
:100844000024AF0DB01D0895F195E195F040089591
:100854006F2F660F660B762F0895ED91FC9111971B
:1008640008950590F491E02D08957A936A93FA938C
:10087400EA9308955A934A933A932A931A930A93BC
:1008840008955D814C813B812A81198108810895F5
:00000001FF
